{
  "_format": "hh-sol-artifact-1",
  "contractName": "StakingContract",
  "sourceName": "contracts/StakingContract.sol",
  "abi": [
    {
      "inputs": [
        {
          "internalType": "contract IERC20",
          "name": "_stakingToken",
          "type": "address"
        },
        {
          "internalType": "contract IERC20",
          "name": "_rewardToken",
          "type": "address"
        },
        {
          "internalType": "uint256",
          "name": "_rewardInterval",
          "type": "uint256"
        }
      ],
      "stateMutability": "nonpayable",
      "type": "constructor"
    },
    {
      "inputs": [
        {
          "internalType": "address",
          "name": "owner",
          "type": "address"
        }
      ],
      "name": "OwnableInvalidOwner",
      "type": "error"
    },
    {
      "inputs": [
        {
          "internalType": "address",
          "name": "account",
          "type": "address"
        }
      ],
      "name": "OwnableUnauthorizedAccount",
      "type": "error"
    },
    {
      "anonymous": false,
      "inputs": [
        {
          "indexed": true,
          "internalType": "address",
          "name": "previousOwner",
          "type": "address"
        },
        {
          "indexed": true,
          "internalType": "address",
          "name": "newOwner",
          "type": "address"
        }
      ],
      "name": "OwnershipTransferred",
      "type": "event"
    },
    {
      "anonymous": false,
      "inputs": [
        {
          "indexed": true,
          "internalType": "address",
          "name": "user",
          "type": "address"
        },
        {
          "indexed": false,
          "internalType": "uint256",
          "name": "amount",
          "type": "uint256"
        }
      ],
      "name": "RewardClaimed",
      "type": "event"
    },
    {
      "anonymous": false,
      "inputs": [
        {
          "indexed": false,
          "internalType": "uint256",
          "name": "newInterval",
          "type": "uint256"
        }
      ],
      "name": "RewardIntervalChanged",
      "type": "event"
    },
    {
      "anonymous": false,
      "inputs": [
        {
          "indexed": false,
          "internalType": "uint256",
          "name": "newRate",
          "type": "uint256"
        }
      ],
      "name": "RewardRateAdjusted",
      "type": "event"
    },
    {
      "anonymous": false,
      "inputs": [
        {
          "indexed": true,
          "internalType": "address",
          "name": "user",
          "type": "address"
        },
        {
          "indexed": false,
          "internalType": "uint256",
          "name": "amount",
          "type": "uint256"
        }
      ],
      "name": "Staked",
      "type": "event"
    },
    {
      "anonymous": false,
      "inputs": [
        {
          "indexed": true,
          "internalType": "address",
          "name": "user",
          "type": "address"
        },
        {
          "indexed": false,
          "internalType": "uint256",
          "name": "amount",
          "type": "uint256"
        },
        {
          "indexed": false,
          "internalType": "uint256",
          "name": "rewards",
          "type": "uint256"
        }
      ],
      "name": "Withdrawn",
      "type": "event"
    },
    {
      "inputs": [],
      "name": "claimRewards",
      "outputs": [],
      "stateMutability": "nonpayable",
      "type": "function"
    },
    {
      "inputs": [
        {
          "internalType": "uint256",
          "name": "amount",
          "type": "uint256"
        }
      ],
      "name": "depositRewards",
      "outputs": [],
      "stateMutability": "nonpayable",
      "type": "function"
    },
    {
      "inputs": [
        {
          "internalType": "address",
          "name": "_staker",
          "type": "address"
        }
      ],
      "name": "getStakerInfo",
      "outputs": [
        {
          "internalType": "uint256",
          "name": "stakedAmount",
          "type": "uint256"
        },
        {
          "internalType": "uint256",
          "name": "rewardDue",
          "type": "uint256"
        },
        {
          "internalType": "uint256",
          "name": "lastStakedTime",
          "type": "uint256"
        }
      ],
      "stateMutability": "nonpayable",
      "type": "function"
    },
    {
      "inputs": [],
      "name": "isSameToken",
      "outputs": [
        {
          "internalType": "bool",
          "name": "",
          "type": "bool"
        }
      ],
      "stateMutability": "view",
      "type": "function"
    },
    {
      "inputs": [],
      "name": "owner",
      "outputs": [
        {
          "internalType": "address",
          "name": "",
          "type": "address"
        }
      ],
      "stateMutability": "view",
      "type": "function"
    },
    {
      "inputs": [],
      "name": "renounceOwnership",
      "outputs": [],
      "stateMutability": "nonpayable",
      "type": "function"
    },
    {
      "inputs": [],
      "name": "rewardInterval",
      "outputs": [
        {
          "internalType": "uint256",
          "name": "",
          "type": "uint256"
        }
      ],
      "stateMutability": "view",
      "type": "function"
    },
    {
      "inputs": [],
      "name": "rewardPool",
      "outputs": [
        {
          "internalType": "int256",
          "name": "",
          "type": "int256"
        }
      ],
      "stateMutability": "view",
      "type": "function"
    },
    {
      "inputs": [],
      "name": "rewardRate",
      "outputs": [
        {
          "internalType": "uint256",
          "name": "",
          "type": "uint256"
        }
      ],
      "stateMutability": "view",
      "type": "function"
    },
    {
      "inputs": [],
      "name": "rewardToken",
      "outputs": [
        {
          "internalType": "contract IERC20",
          "name": "",
          "type": "address"
        }
      ],
      "stateMutability": "view",
      "type": "function"
    },
    {
      "inputs": [
        {
          "internalType": "uint256",
          "name": "_newInterval",
          "type": "uint256"
        }
      ],
      "name": "setRewardInterval",
      "outputs": [],
      "stateMutability": "nonpayable",
      "type": "function"
    },
    {
      "inputs": [
        {
          "internalType": "uint256",
          "name": "amount",
          "type": "uint256"
        }
      ],
      "name": "stake",
      "outputs": [],
      "stateMutability": "nonpayable",
      "type": "function"
    },
    {
      "inputs": [
        {
          "internalType": "address",
          "name": "",
          "type": "address"
        }
      ],
      "name": "stakers",
      "outputs": [
        {
          "internalType": "uint256",
          "name": "stakedAmount",
          "type": "uint256"
        },
        {
          "internalType": "uint256",
          "name": "rewardDue",
          "type": "uint256"
        },
        {
          "internalType": "uint256",
          "name": "lastStakedTime",
          "type": "uint256"
        }
      ],
      "stateMutability": "view",
      "type": "function"
    },
    {
      "inputs": [],
      "name": "stakingToken",
      "outputs": [
        {
          "internalType": "contract IERC20",
          "name": "",
          "type": "address"
        }
      ],
      "stateMutability": "view",
      "type": "function"
    },
    {
      "inputs": [],
      "name": "totalStaked",
      "outputs": [
        {
          "internalType": "uint256",
          "name": "",
          "type": "uint256"
        }
      ],
      "stateMutability": "view",
      "type": "function"
    },
    {
      "inputs": [
        {
          "internalType": "address",
          "name": "newOwner",
          "type": "address"
        }
      ],
      "name": "transferOwnership",
      "outputs": [],
      "stateMutability": "nonpayable",
      "type": "function"
    },
    {
      "inputs": [
        {
          "internalType": "uint256",
          "name": "amount",
          "type": "uint256"
        }
      ],
      "name": "withdraw",
      "outputs": [],
      "stateMutability": "nonpayable",
      "type": "function"
    }
  ],
  "bytecode": "0x60806040523480156200001157600080fd5b506040516200212838038062002128833981810160405281019062000037919062000369565b33600073ffffffffffffffffffffffffffffffffffffffff168173ffffffffffffffffffffffffffffffffffffffff1603620000ad5760006040517f1e4fbdf7000000000000000000000000000000000000000000000000000000008152600401620000a49190620003d6565b60405180910390fd5b620000be81620001ec60201b60201c565b5082600160006101000a81548173ffffffffffffffffffffffffffffffffffffffff021916908373ffffffffffffffffffffffffffffffffffffffff16021790555081600260006101000a81548173ffffffffffffffffffffffffffffffffffffffff021916908373ffffffffffffffffffffffffffffffffffffffff16021790555080600481905550670de0b6b3a7640000600581905550600260009054906101000a900473ffffffffffffffffffffffffffffffffffffffff1673ffffffffffffffffffffffffffffffffffffffff16600160009054906101000a900473ffffffffffffffffffffffffffffffffffffffff1673ffffffffffffffffffffffffffffffffffffffff1614600760006101000a81548160ff021916908315150217905550505050620003f3565b60008060009054906101000a900473ffffffffffffffffffffffffffffffffffffffff169050816000806101000a81548173ffffffffffffffffffffffffffffffffffffffff021916908373ffffffffffffffffffffffffffffffffffffffff1602179055508173ffffffffffffffffffffffffffffffffffffffff168173ffffffffffffffffffffffffffffffffffffffff167f8be0079c531659141344cd1fd0a4f28419497f9722a3daafe3b4186f6b6457e060405160405180910390a35050565b600080fd5b600073ffffffffffffffffffffffffffffffffffffffff82169050919050565b6000620002e282620002b5565b9050919050565b6000620002f682620002d5565b9050919050565b6200030881620002e9565b81146200031457600080fd5b50565b6000815190506200032881620002fd565b92915050565b6000819050919050565b62000343816200032e565b81146200034f57600080fd5b50565b600081519050620003638162000338565b92915050565b600080600060608486031215620003855762000384620002b0565b5b6000620003958682870162000317565b9350506020620003a88682870162000317565b9250506040620003bb8682870162000352565b9150509250925092565b620003d081620002d5565b82525050565b6000602082019050620003ed6000830184620003c5565b92915050565b611d2580620004036000396000f3fe608060405234801561001057600080fd5b506004361061010b5760003560e01c8063817b1cd2116100a2578063a694fc3a11610071578063a694fc3a14610274578063bec4de3f14610290578063e3e84213146102ae578063f2fde38b146102ca578063f7c618c1146102e65761010b565b8063817b1cd2146101ea5780638bdf67f2146102085780638da5cb5b146102245780639168ae72146102425761010b565b8063715018a6116100de578063715018a61461017257806372f702f31461017c578063733bdef01461019a5780637b0a47ee146101cc5761010b565b80630f7838e6146101105780632e1a7d4d1461012e578063372500ab1461014a57806366666aa914610154575b600080fd5b610118610304565b60405161012591906113db565b60405180910390f35b61014860048036038101906101439190611431565b610317565b005b6101526108c9565b005b61015c610b3c565b6040516101699190611477565b60405180910390f35b61017a610b42565b005b610184610b56565b6040516101919190611511565b60405180910390f35b6101b460048036038101906101af919061156a565b610b7c565b6040516101c3939291906115a6565b60405180910390f35b6101d4610bea565b6040516101e191906115dd565b60405180910390f35b6101f2610bf0565b6040516101ff91906115dd565b60405180910390f35b610222600480360381019061021d9190611431565b610bf6565b005b61022c610d08565b6040516102399190611607565b60405180910390f35b61025c6004803603810190610257919061156a565b610d31565b60405161026b939291906115a6565b60405180910390f35b61028e60048036038101906102899190611431565b610d5b565b005b610298611002565b6040516102a591906115dd565b60405180910390f35b6102c860048036038101906102c39190611431565b611008565b005b6102e460048036038101906102df919061156a565b611051565b005b6102ee6110d7565b6040516102fb9190611511565b60405180910390f35b600760009054906101000a900460ff1681565b6000600860003373ffffffffffffffffffffffffffffffffffffffff1673ffffffffffffffffffffffffffffffffffffffff1681526020019081526020016000209050610363336110fd565b600081600101549050600760009054906101000a900460ff1615610516576000818461038f9190611651565b905080600160009054906101000a900473ffffffffffffffffffffffffffffffffffffffff1673ffffffffffffffffffffffffffffffffffffffff166370a08231306040518263ffffffff1660e01b81526004016103ed9190611607565b602060405180830381865afa15801561040a573d6000803e3d6000fd5b505050506040513d601f19601f8201168201806040525081019061042e919061169a565b101561046f576040517f08c379a00000000000000000000000000000000000000000000000000000000081526004016104669061174a565b60405180910390fd5b600160009054906101000a900473ffffffffffffffffffffffffffffffffffffffff1673ffffffffffffffffffffffffffffffffffffffff1663a9059cbb33836040518363ffffffff1660e01b81526004016104cc92919061176a565b6020604051808303816000875af11580156104eb573d6000803e3d6000fd5b505050506040513d601f19601f8201168201806040525081019061050f91906117bf565b5050610815565b82600160009054906101000a900473ffffffffffffffffffffffffffffffffffffffff1673ffffffffffffffffffffffffffffffffffffffff166370a08231306040518263ffffffff1660e01b81526004016105729190611607565b602060405180830381865afa15801561058f573d6000803e3d6000fd5b505050506040513d601f19601f820116820180604052508101906105b3919061169a565b10156105f4576040517f08c379a00000000000000000000000000000000000000000000000000000000081526004016105eb9061185e565b60405180910390fd5b80600260009054906101000a900473ffffffffffffffffffffffffffffffffffffffff1673ffffffffffffffffffffffffffffffffffffffff166370a08231306040518263ffffffff1660e01b81526004016106509190611607565b602060405180830381865afa15801561066d573d6000803e3d6000fd5b505050506040513d601f19601f82011682018060405250810190610691919061169a565b10156106d2576040517f08c379a00000000000000000000000000000000000000000000000000000000081526004016106c9906118f0565b60405180910390fd5b600160009054906101000a900473ffffffffffffffffffffffffffffffffffffffff1673ffffffffffffffffffffffffffffffffffffffff1663a9059cbb33856040518363ffffffff1660e01b815260040161072f92919061176a565b6020604051808303816000875af115801561074e573d6000803e3d6000fd5b505050506040513d601f19601f8201168201806040525081019061077291906117bf565b50600260009054906101000a900473ffffffffffffffffffffffffffffffffffffffff1673ffffffffffffffffffffffffffffffffffffffff1663a9059cbb33836040518363ffffffff1660e01b81526004016107d092919061176a565b6020604051808303816000875af11580156107ef573d6000803e3d6000fd5b505050506040513d601f19601f8201168201806040525081019061081391906117bf565b505b828260000160008282546108299190611910565b9250508190555060008260010181905550826003600082825461084c9190611910565b9250508190555080600660008282546108659190611944565b925050819055506108746111cd565b3373ffffffffffffffffffffffffffffffffffffffff167f92ccf450a286a957af52509bc1c9939d1a6a481783e142e41e2499f0bb66ebc684836040516108bc929190611987565b60405180910390a2505050565b6108d2336110fd565b6000600860003373ffffffffffffffffffffffffffffffffffffffff1673ffffffffffffffffffffffffffffffffffffffff168152602001908152602001600020905060008160010154905060008111610961576040517f08c379a0000000000000000000000000000000000000000000000000000000008152600401610958906119fc565b60405180910390fd5b80600260009054906101000a900473ffffffffffffffffffffffffffffffffffffffff1673ffffffffffffffffffffffffffffffffffffffff166370a08231306040518263ffffffff1660e01b81526004016109bd9190611607565b602060405180830381865afa1580156109da573d6000803e3d6000fd5b505050506040513d601f19601f820116820180604052508101906109fe919061169a565b1015610a3f576040517f08c379a0000000000000000000000000000000000000000000000000000000008152600401610a36906118f0565b60405180910390fd5b600260009054906101000a900473ffffffffffffffffffffffffffffffffffffffff1673ffffffffffffffffffffffffffffffffffffffff1663a9059cbb33836040518363ffffffff1660e01b8152600401610a9c92919061176a565b6020604051808303816000875af1158015610abb573d6000803e3d6000fd5b505050506040513d601f19601f82011682018060405250810190610adf91906117bf565b50600082600101819055503373ffffffffffffffffffffffffffffffffffffffff167f106f923f993c2149d49b4255ff723acafa1f2d94393f561d3eda32ae348f724182604051610b3091906115dd565b60405180910390a25050565b60065481565b610b4a61126d565b610b5460006112f4565b565b600160009054906101000a900473ffffffffffffffffffffffffffffffffffffffff1681565b6000806000610b8a846110fd565b6000600860008673ffffffffffffffffffffffffffffffffffffffff1673ffffffffffffffffffffffffffffffffffffffff1681526020019081526020016000209050806000015481600101548260020154935093509350509193909250565b60055481565b60035481565b610bfe61126d565b60008111610c41576040517f08c379a0000000000000000000000000000000000000000000000000000000008152600401610c3890611a68565b60405180910390fd5b600260009054906101000a900473ffffffffffffffffffffffffffffffffffffffff1673ffffffffffffffffffffffffffffffffffffffff166323b872dd3330846040518463ffffffff1660e01b8152600401610ca093929190611a88565b6020604051808303816000875af1158015610cbf573d6000803e3d6000fd5b505050506040513d601f19601f82011682018060405250810190610ce391906117bf565b508060066000828254610cf69190611abf565b92505081905550610d056111cd565b50565b60008060009054906101000a900473ffffffffffffffffffffffffffffffffffffffff16905090565b60086020528060005260406000206000915090508060000154908060010154908060020154905083565b60008111610d9e576040517f08c379a0000000000000000000000000000000000000000000000000000000008152600401610d9590611b75565b60405180910390fd5b80600160009054906101000a900473ffffffffffffffffffffffffffffffffffffffff1673ffffffffffffffffffffffffffffffffffffffff166370a08231336040518263ffffffff1660e01b8152600401610dfa9190611607565b602060405180830381865afa158015610e17573d6000803e3d6000fd5b505050506040513d601f19601f82011682018060405250810190610e3b919061169a565b1015610e7c576040517f08c379a0000000000000000000000000000000000000000000000000000000008152600401610e7390611c2d565b60405180910390fd5b610e85336110fd565b600160009054906101000a900473ffffffffffffffffffffffffffffffffffffffff1673ffffffffffffffffffffffffffffffffffffffff166323b872dd3330846040518463ffffffff1660e01b8152600401610ee493929190611a88565b6020604051808303816000875af1158015610f03573d6000803e3d6000fd5b505050506040513d601f19601f82011682018060405250810190610f2791906117bf565b506000600860003373ffffffffffffffffffffffffffffffffffffffff1673ffffffffffffffffffffffffffffffffffffffff168152602001908152602001600020905081816000016000828254610f7f9190611651565b925050819055504281600201819055508160036000828254610fa19190611651565b92505081905550610fb06111cd565b3373ffffffffffffffffffffffffffffffffffffffff167f9e71bc8eea02a63969f509818f2dafb9254532904319f9dbda79b67bd34a5f3d83604051610ff691906115dd565b60405180910390a25050565b60045481565b61101061126d565b806004819055507f08ae5cf72c51c09a4a8d754205a2ed0f5db82c9d07e3c84f68c3aef2514372518160405161104691906115dd565b60405180910390a150565b61105961126d565b600073ffffffffffffffffffffffffffffffffffffffff168173ffffffffffffffffffffffffffffffffffffffff16036110cb5760006040517f1e4fbdf70000000000000000000000000000000000000000000000000000000081526004016110c29190611607565b60405180910390fd5b6110d4816112f4565b50565b600260009054906101000a900473ffffffffffffffffffffffffffffffffffffffff1681565b6000600860008373ffffffffffffffffffffffffffffffffffffffff1673ffffffffffffffffffffffffffffffffffffffff16815260200190815260200160002090506000816000015411156111c957600081600201544261115f9190611910565b90506000670de0b6b3a76400006004546111799190611c4d565b83600001546005548461118c9190611c4d565b6111969190611c4d565b6111a09190611cbe565b9050808360010160008282546111b69190611651565b9250508190555042836002018190555050505b5050565b600060035414806111e15750600060065413155b156111f3576000600581905550611232565b6000600354670de0b6b3a764000061120b9190611cbe565b90506000670de0b6b3a764000090508082116112275781611229565b805b60058190555050505b7feacc835f824cfa20e4a4e63ec2c0305bb74ac8125c3af5e31bbaf92ed51292ec60055460405161126391906115dd565b60405180910390a1565b6112756113b8565b73ffffffffffffffffffffffffffffffffffffffff16611293610d08565b73ffffffffffffffffffffffffffffffffffffffff16146112f2576112b66113b8565b6040517f118cdaa70000000000000000000000000000000000000000000000000000000081526004016112e99190611607565b60405180910390fd5b565b60008060009054906101000a900473ffffffffffffffffffffffffffffffffffffffff169050816000806101000a81548173ffffffffffffffffffffffffffffffffffffffff021916908373ffffffffffffffffffffffffffffffffffffffff1602179055508173ffffffffffffffffffffffffffffffffffffffff168173ffffffffffffffffffffffffffffffffffffffff167f8be0079c531659141344cd1fd0a4f28419497f9722a3daafe3b4186f6b6457e060405160405180910390a35050565b600033905090565b60008115159050919050565b6113d5816113c0565b82525050565b60006020820190506113f060008301846113cc565b92915050565b600080fd5b6000819050919050565b61140e816113fb565b811461141957600080fd5b50565b60008135905061142b81611405565b92915050565b600060208284031215611447576114466113f6565b5b60006114558482850161141c565b91505092915050565b6000819050919050565b6114718161145e565b82525050565b600060208201905061148c6000830184611468565b92915050565b600073ffffffffffffffffffffffffffffffffffffffff82169050919050565b6000819050919050565b60006114d76114d26114cd84611492565b6114b2565b611492565b9050919050565b60006114e9826114bc565b9050919050565b60006114fb826114de565b9050919050565b61150b816114f0565b82525050565b60006020820190506115266000830184611502565b92915050565b600061153782611492565b9050919050565b6115478161152c565b811461155257600080fd5b50565b6000813590506115648161153e565b92915050565b6000602082840312156115805761157f6113f6565b5b600061158e84828501611555565b91505092915050565b6115a0816113fb565b82525050565b60006060820190506115bb6000830186611597565b6115c86020830185611597565b6115d56040830184611597565b949350505050565b60006020820190506115f26000830184611597565b92915050565b6116018161152c565b82525050565b600060208201905061161c60008301846115f8565b92915050565b7f4e487b7100000000000000000000000000000000000000000000000000000000600052601160045260246000fd5b600061165c826113fb565b9150611667836113fb565b925082820190508082111561167f5761167e611622565b5b92915050565b60008151905061169481611405565b92915050565b6000602082840312156116b0576116af6113f6565b5b60006116be84828501611685565b91505092915050565b600082825260208201905092915050565b7f496e73756666696369656e7420636f6e74726163742062616c616e636520666f60008201527f72207769746864726177616c0000000000000000000000000000000000000000602082015250565b6000611734602c836116c7565b915061173f826116d8565b604082019050919050565b6000602082019050818103600083015261176381611727565b9050919050565b600060408201905061177f60008301856115f8565b61178c6020830184611597565b9392505050565b61179c816113c0565b81146117a757600080fd5b50565b6000815190506117b981611793565b92915050565b6000602082840312156117d5576117d46113f6565b5b60006117e3848285016117aa565b91505092915050565b7f496e73756666696369656e7420636f6e74726163742062616c616e636520666f60008201527f72207374616b656420746f6b656e73207769746864726177616c000000000000602082015250565b6000611848603a836116c7565b9150611853826117ec565b604082019050919050565b600060208201905081810360008301526118778161183b565b9050919050565b7f496e73756666696369656e74207265776172642062616c616e636520666f722060008201527f72657761726473207769746864726177616c0000000000000000000000000000602082015250565b60006118da6032836116c7565b91506118e58261187e565b604082019050919050565b60006020820190508181036000830152611909816118cd565b9050919050565b600061191b826113fb565b9150611926836113fb565b925082820390508181111561193e5761193d611622565b5b92915050565b600061194f8261145e565b915061195a8361145e565b925082820390508181126000841216828213600085121516171561198157611980611622565b5b92915050565b600060408201905061199c6000830185611597565b6119a96020830184611597565b9392505050565b7f4e6f207265776172647320746f20636c61696d00000000000000000000000000600082015250565b60006119e66013836116c7565b91506119f1826119b0565b602082019050919050565b60006020820190508181036000830152611a15816119d9565b9050919050565b7f43616e6e6f74206465706f736974207a65726f20746f6b656e73000000000000600082015250565b6000611a52601a836116c7565b9150611a5d82611a1c565b602082019050919050565b60006020820190508181036000830152611a8181611a45565b9050919050565b6000606082019050611a9d60008301866115f8565b611aaa60208301856115f8565b611ab76040830184611597565b949350505050565b6000611aca8261145e565b9150611ad58361145e565b925082820190508281121560008312168382126000841215161715611afd57611afc611622565b5b92915050565b7f5374616b6520416d6f756e74204d75737420626520677265617465722074686160008201527f6e20300000000000000000000000000000000000000000000000000000000000602082015250565b6000611b5f6023836116c7565b9150611b6a82611b03565b604082019050919050565b60006020820190508181036000830152611b8e81611b52565b9050919050565b7f4163636f756e742062616c616e6365206d75737420626520677265617465722060008201527f6f7220657175616c207468616e2074686520416d6f756e74206f6620546f6b6560208201527f6e7320746f206265205374616b65640000000000000000000000000000000000604082015250565b6000611c17604f836116c7565b9150611c2282611b95565b606082019050919050565b60006020820190508181036000830152611c4681611c0a565b9050919050565b6000611c58826113fb565b9150611c63836113fb565b9250828202611c71816113fb565b91508282048414831517611c8857611c87611622565b5b5092915050565b7f4e487b7100000000000000000000000000000000000000000000000000000000600052601260045260246000fd5b6000611cc9826113fb565b9150611cd4836113fb565b925082611ce457611ce3611c8f565b5b82820490509291505056fea2646970667358221220b341aee8ddd049b2cd47b9d890d26cc7e0020629e7913ef937650b03b3c5344464736f6c63430008140033",
  "linkReferences": {},
  "deployedLinkReferences": {}
}